:100000000C944D000C9462000C9462000C946200FD
:100010000C9462000C9462000C9462000C946200D8
:100020000C9462000C9462000C9462000C946200C8
:100030000C9462000C9462000C9462000C946200B8
:100040000C9462000C9462000C9462000C946200A8
:100050000C94620078007E0084008A009000A10069
:10006000A100A100A100A100A100A1009600A10093
:10007000A100A100A100A100A100A100A100A10078
:10008000A100A100A100A100A100A100A100A10068
:10009000A100A100A100A1009C0011241FBECFE57A
:1000A000D8E0DEBFCDBF10E0A0E6B0E0E4EBF6E0C4
:1000B00002C005900D92A43AB107D9F70E94190326
:1000C0000C9458030C9400003E9A3F98389A359A45
:1000D000309A319A329A33983D98379A089590E041
:1000E0008332910570F5FC01E65DFF4F0C944303EC
:1000F000389839983A983B983C980895389A3998A6
:100100003A983B983C9808953898399A3A983B9891
:100110003C980895389A399A3A983B983C980895B3
:10012000389839983A9A3B983C9808953898399875
:100130003A983B983C9A0895389A399A3A983B9A5B
:100140003C9A0895369A349BFECF24B135B142E3F0
:10015000429FC001439F900D1124892F869586955B
:1001600090E008954423B9F1413009F06BC081302B
:1001700089F028F08230C9F0833011F108952AB354
:1001800081E090E002C0880F991F6A95E2F7822B08
:100190008ABB089527B381E090E002C0880F991FC1
:1001A0006A95E2F7822B87BB089524B381E090E043
:1001B00002C0880F991F6A95E2F7822B84BB0895CD
:1001C00021B381E090E002C0880F991F6A95E2F7A1
:1001D000822B81BB0895813091F028F08230D9F0D4
:1001E000833029F108952AB381E090E002C0880F9E
:1001F000991F6A95E2F7809582238ABB089527B3F9
:1002000081E090E002C0880F991F6A95E2F780951F
:10021000822387BB089524B381E090E002C0880F59
:10022000991F6A95E2F78095822384BB089521B3D4
:1002300081E090E002C0880F991F6A95E2F78095EF
:10024000822381BB08954423B9F1413009F06BC08A
:10025000813089F028F08230C9F0833011F108959F
:100260002BB381E090E002C0880F991F6A95E2F7F6
:10027000822B8BBB089528B381E090E002C0880FE9
:10028000991F6A95E2F7822B88BB089525B381E018
:1002900090E002C0880F991F6A95E2F7822B85BB18
:1002A000089522B381E090E002C0880F991F6A95FB
:1002B000E2F7822B82BB0895813091F028F08230E2
:1002C000D9F0833029F108952BB381E090E002C08A
:1002D000880F991F6A95E2F7809582238BBB08955A
:1002E00028B381E090E002C0880F991F6A95E2F779
:1002F0008095822388BB089525B381E090E002C0F9
:10030000880F991F6A95E2F78095822385BB08952F
:1003100022B381E090E002C0880F991F6A95E2F74E
:100320008095822382BB08950E9464000895CF9334
:10033000C82F0E946F000E94A200C53058F49C0193
:10034000ADECBCEC0E9449039695879596958795F0
:1003500096958795CF910895EF92FF920F931F93F3
:10036000CF93DF93EC018B017A010E941503CE320B
:10037000D10528F080E690E00E94FF0270C0C932EB
:10038000D10528F088E690E00E94FF0268C0C432E0
:10039000D10528F080E790E00E94FF0260C0CF31D5
:1003A000D10528F083E790E00E94FF0258C0CA31CF
:1003B000D10528F08AE790E00E94FF0250C0C531C5
:1003C000D10528F08FE790E00E94FF0248C0C031BD
:1003D000D10528F082E890E00E94FF0240C02B97F0
:1003E00028F088E890E00E94FF0239C00932110528
:1003F00028F08DE890E00E94FF0231C00432110520
:1004000028F082E990E00E94FF0229C00F31110517
:1004100028F08DE690E00E94FF0221C00A3111050C
:1004200028F086E990E00E94FF0219C00031110512
:1004300028F08BE990E00E94FF0211C084E0E816EA
:10044000F10428F080EA90E00E94FF0208C083E0F7
:10045000E816F10420F085E690E00E94FF02DF91AB
:10046000CF911F910F91FF90EF900895CF93C82FD8
:1004700040E061E081E00E94230140E062E081E031
:100480000E94230140E063E081E00E9423018BB3DE
:100490009C2F907F8F70892B82BB41E063E081E0CD
:1004A0000E9423018FE99FE00197F1F700C000004F
:1004B00040E063E081E00E9423012BB330E1C39F61
:1004C000C0011124922F9F70892B82BB41E063E011
:1004D00081E00E9423018FE99FE00197F1F700C0BE
:1004E000000040E063E081E00E9423018FE19EE490
:1004F0000197F1F700C00000CF91089541E061E05D
:1005000081E00E94B20041E062E081E00E94B2001E
:1005100041E063E081E00E94B20041E064E083E0FA
:100520000E94B20041E065E083E00E94B20041E039
:1005300066E083E00E94B20041E067E083E00E9451
:10054000B2002FEF81EE94E0215080409040E1F71F
:1005500000C0000083E30E94360282E30E9436025C
:1005600088E20E9436028CE00E94360281E00E94FE
:10057000360286E00E94360282E00E94360208952A
:10058000CF93C82F41E061E081E00E94230140E069
:1005900062E081E00E94230140E063E081E00E948C
:1005A00023018C2F807F82BB41E063E081E00E94C9
:1005B00023018FE99FE00197F1F700C0000040E0C0
:1005C00063E081E00E942301C295C07FC2BB41E08D
:1005D00063E081E00E9423018FE99FE00197F1F73A
:1005E00000C0000040E063E081E00E9423018FE151
:1005F0009EE40197F1F700C00000CF9108950F939A
:100600001F93CF93FC018081882359F08F01C0E0B4
:100610000E94C002CF5FF801EC0FF11D80818111B3
:10062000F7CFCF911F910F91089581E00E9436027C
:1006300008950E947E020E9494018CE00E9497011E
:10064000EC018FE39CE90197F1F700C0000082E222
:100650000E9497018C018FE39CE90197F1F700C09C
:10066000000084E00E949701AC01B801CE010E9415
:10067000AC019FEF25E282E0915020408040E1F7FD
:1006800000C00000DACFEE0FFF1F0590F491E02DBF
:100690000994A29FB001B39FC001A39F700D811D5B
:1006A0001124911DB29F700D811D1124911D08957B
:0406B000F894FFCFEC
:1006B40073746F700068690077656C636F6D6500B3
:1006C400676F0072657475726E006C6F7665006F8B
:1006D4006B007768657265006D6F76650077656C91
:1006E4006C00796F750077686174007768656E00D7
:0406F400686F7700B4
:00000001FF
