S0160000476C6F76655F666F725F446561662E737265639C
S11300000C942A000C943F000C943F000C943F0085
S11300100C943F000C943F000C943F000C943F0060
S11300200C943F000C943F000C943F000C943F0050
S11300300C943F000C943F000C943F000C943F0040
S11300400C943F000C943F000C943F000C943F0030
S11300500C943F0011241FBECFE5D8E0DEBFCDBF16
S113006010E0A0E6B0E0EEECFFE002C005900D92D7
S1130070A63AB107D9F70E943E070C94E5070C9401
S113008000003E9A3F9A359A309A319A329A339ABE
S11300903D98379A08958230B9F028F4882341F0C6
S11300A0813061F008958330A9F08430C9F0089557
S11300B0389839983A983B983C980895389A3998E2
S11300C03A983B983C9808953898399A3A983B98CE
S11300D03C980895389A399A3A983B983C980895F0
S11300E0389839983A9A3B983C980895369A349BB4
S11300F0FECF84B195B108954423B9F1413009F09C
S11301006BC0813089F028F08230C9F0833011F15E
S113011008952AB381E090E002C0880F991F6A9580
S1130120E2F7822B8ABB089527B381E090E002C0F6
S1130130880F991F6A95E2F7822B87BB089524B331
S113014081E090E002C0880F991F6A95E2F7822B44
S113015084BB089521B381E090E002C0880F991F09
S11301606A95E2F7822B81BB0895813091F028F0E3
S11301708230D9F0833029F108952AB381E090E0E8
S113018002C0880F991F6A95E2F7809582238ABB83
S1130190089527B381E090E002C0880F991F6A9503
S11301A0E2F78095822387BB089524B381E090E031
S11301B002C0880F991F6A95E2F78095822384BB59
S11301C0089521B381E090E002C0880F991F6A95D9
S11301D0E2F78095822381BB08954423B9F141302D
S11301E009F06BC0813089F028F08230C9F0833087
S11301F011F108952BB381E090E002C0880F991F9C
S11302006A95E2F7822B8BBB089528B381E090E0D6
S113021002C0880F991F6A95E2F7822B88BB089564
S113022025B381E090E002C0880F991F6A95E2F738
S1130230822B85BB089522B381E090E002C0880F31
S1130240991F6A95E2F7822B82BB0895813091F061
S113025028F08230D9F0833029F108952BB381E05E
S113026090E002C0880F991F6A95E2F78095822377
S11302708BBB089528B381E090E002C0880F991FDA
S11302806A95E2F78095822388BB089525B381E0BF
S113029090E002C0880F991F6A95E2F78095822347
S11302A085BB089522B381E090E002C0880F991FB6
S11302B06A95E2F78095822382BB08950E944B00E1
S11302C00E947600982F990F990F890F08958F92A5
S11302D09F92AF92BF92CF92DF92EF92FF920F93D1
S11302E01F93CF93DF935C01EB017A0169010E94B4
S11302F03A07B50180E090E00E947F074B015C0162
S113030020E030E040E250E40E94E00718160CF0D0
S11303103DC0BE0180E090E00E947F0720E030E015
S113032040E250E40E94E00718160CF0D5C3B70170
S113033080E090E00E947F0720E030E040E250E45B
S11303400E94E00718160CF0D3C3B60180E090E0D9
S11303500E947F0720E030E040E250E40E94E00782
S113036018160CF0C5C3B80180E090E00E947F0726
S113037020E030E040E250E40E94E00718160CF060
S1130380B7C380E690E00E94240776C42DEC3CECD1
S11303904CEC5DE3C501B4010E947A078823E4F5BF
S11303A0BE0180E090E00E947F0720E030E040E260
S11303B050E40E94E00718167CF5B70180E090E055
S11303C00E947F072DEC3CEC4CEC5DE30E947A0725
S11303D088230CF099C3B60180E090E00E947F0767
S11303E02DEC3CEC4CEC5DE30E947A0788230CF086
S11303F037C4B80180E090E00E947F072DEC3CEC0C
S11304004CEC5DE30E947A0788230CF029C485E64E
S113041090E00E94240730C420E030E040E250E441
S1130420C501B4010E94E0071816D4F5BE0180E0AE
S113043090E00E947F0720E030E040E250E40E9418
S1130440E0071816BCF5BAC3B70180E090E00E943B
S11304507F072DEC3CEC4CEC5DE30E947A0788238B
S11304604CF5B60180E090E00E947F072DEC3CEC57
S11304704CEC5DE30E947A078823E4F4B80180E041
S113048090E00E947F072DEC3CEC4CEC5DE30E9475
S11304907A0788237CF489E690E00E942407ECC361
S11304A020E030E040E250E4C501B4010E94E007DE
S11304B01816CCF5BE0180E090E00E947F0720E092
S11304C030E040E250E40E94E0071816BCF5B701A2
S11304D080E090E00E947F0720E030E040E250E4BA
S11304E00E94E0071816BCF5B60180E090E00E9477
S11304F07F072DEC3CEC4CEC5DE30E947A078823EB
S113050054F5B80180E090E00E947F072DEC3CECAC
S11305104CEC5DE30E947A078823ECF48DE690E0CE
S11305200E942407A9C320E030E040E250E4C50162
S1130530B4010E94E00718160CF03CC0BE0180E034
S113054090E00E947F0720E030E040E250E40E9407
S1130550E00718167CF5B70180E090E00E947F0761
S113056020E030E040E250E40E94E00718160CF06E
S1130570D7C2B60180E090E00E947F0720E030E01F
S113058040E250E40E94E00718160CF0C9C2B8011A
S113059080E090E00E947F072DEC3CEC4CEC5DE3A6
S11305A00E947A0788230CF0BBC283E790E00E9484
S11305B0240762C32DEC3CEC4CEC5DE3C501B401B3
S11305C00E947A0788237CF5BE0180E090E00E94B7
S11305D07F0720E030E040E250E40E94E007181674
S11305E064F5FBC2B60180E090E00E947F072DEC29
S11305F03CEC4CEC5DE30E947A0788230CF008C3C2
S1130600B80180E090E00E947F0720E030E040E203
S113061050E40E94E00718160CF0FAC288E790E054
S11306200E94240729C32DEC3CEC4CEC5DE3C5018E
S1130630B4010E947A078823CCF5BE0180E090E0E3
S11306400E947F0720E030E040E250E40E94E0078F
S11306501816B4F5B70180E090E00E947F072DECF6
S11306603CEC4CEC5DE30E947A078823B4F5B601B8
S113067080E090E00E947F0720E030E040E250E418
S11306800E94E00718164CF5B80180E090E00E9443
S11306907F072DEC3CEC4CEC5DE30E947A07882349
S11306A0E4F48DE790E00E942407E6C22DEC3CECD4
S11306B04CEC5DE3C501B4010E947A078823CCF5B4
S11306C0BE0180E090E00E947F0720E030E040E23D
S11306D050E40E94E0071816B4F5B70180E090E0FA
S11306E00E947F0720E030E040E250E40E94E007EF
S11306F01816B4F5B60180E090E00E947F072DEC57
S11307003CEC4CEC5DE30E947A0788234CF5B8017D
S113071080E090E00E947F072DEC3CEC4CEC5DE324
S11307200E947A078823E4F480E890E00E9424077A
S1130730A3C22DEC3CEC4CEC5DE3C501B4010E947A
S11307407A078823E4F5BE0180E090E00E947F07E9
S113075020E030E040E250E40E94E0071816CCF5B7
S1130760B70180E090E00E947F072DEC3CEC4CEC5C
S11307705DE30E947A0788230CF059C2B60180E039
S113078090E00E947F072DEC3CEC4CEC5DE30E9472
S11307907A0788230CF050C2B80180E090E00E94F0
S11307A07F072DEC3CEC4CEC5DE30E947A07882338
S11307B00CF042C286E890E00E9424075DC22DEC52
S11307C03CEC4CEC5DE3C501B4010E947A0788233C
S11307D07CF5C230D105B8F5B70180E090E00E9405
S11307E07F072DEC3CEC4CEC5DE30E947A078823F8
S11307F054F5B60180E090E00E947F072DEC3CECBC
S11308004CEC5DE30E947A078823ECF4B80180E0A5
S113081090E00E947F072DEC3CEC4CEC5DE30E94E1
S11308207A07882384F48BE890E00E94240724C28A
S11308302DEC3CEC4CEC5DE3C501B4010E947A075D
S113084088230CF03DC0BE0180E090E00E947F0749
S113085020E030E040E250E40E94E00718160CF07B
S113086077C1B70180E090E00E947F072DEC3CEC5B
S11308704CEC5DE30E94E00718160CF05DC1B60174
S113088080E090E00E947F072DEC3CEC4CEC5DE3B3
S11308900E947A0788230CF04FC1B80180E090E0F1
S11308A00E947F072DEC3CEC4CEC5DE30E947A0740
S11308B088230CF041C180E990E00E942407DCC148
S11308C02AE939E949E95EE3C501B4010E94E00778
S11308D01816E4F5BE0180E090E00E947F0720E056
S11308E030E040E250E40E94E00718167CF5B701BE
S11308F080E090E00E947F072DEC3CEC4CEC5DE343
S11309000E947A0788230CF02FC1B60180E090E0A2
S11309100E947F072DEC3CEC4CEC5DE30E947A07CF
S113092088230CF021C1B80180E090E00E947F0789
S11309302DEC3CEC4CEC5DE30E947A0788230CF030
S113094013C184E990E00E94240796C12DEC3CEC8D
S11309504CEC5DE3C501B4010E947A078823D4F509
S1130960BE0180E090E00E947F0720E030E040E29A
S113097050E40E94E0071816BCF563C1B70180E09B
S113098090E00E947F072AE939E949E95FE30E9480
S1130990E00718164CF5B60180E090E00E947F074E
S11309A02DEC3CEC4CEC5DE30E947A078823E4F4E4
S11309B0B80180E090E00E947F072DEC3CEC4CEC09
S11309C05DE30E947A0788237CF487E990E00E9423
S11309D0240752C12DEC3CEC4CEC5DE3C501B401A1
S11309E00E947A07882384F5BE0180E090E00E948B
S11309F07F0720E030E040E250E40E94E007181650
S1130A0074F5B70180E090E00E947F072DEC3CEC88
S1130A104CEC5DE30E947A0788237CF583E0C816DA
S1130A20D10458F1B80180E090E00E947F072DECDA
S1130A303CEC4CEC5DE30E947A078823F4F48CE9E7
S1130A4090E00E94240718C12DEC3CEC4CEC5DE3D3
S1130A50C501B4010E947A0788230CF00DC1BE01C0
S1130A6080E090E00E947F0720E030E040E250E424
S1130A700E94E00718160CF0FFC0B70180E090E078
S1130A800E947F072DEC3CEC4CEC5DE30E947A075E
S1130A9088230CF0F1C0B60180E090E00E947F074B
S1130AA02AE939E949E95EE30E94E00718160CF0E7
S1130AB0E3C0B80180E090E00E947F072DEC3CEC9D
S1130AC04CEC5DE30E947A0788230CF0D5C081EAE0
S1130AD090E00E942407D0C02DEC3CEC4CEC5DE38C
S1130AE0C501B4010E947A0788230CF449C09ECC46
S1130AF02DEC3CEC4CEC5DE3C501B4010E947A079B
S1130B0088230CF44CC092CC20E030E040E250E466
S1130B10C501B4010E94E00718160CF0C1CC94CCB6
S1130B202DEC3CEC4CEC5DE3C501B4010E947A076A
S1130B3088230CF452C060C02AE939E949E95EE32C
S1130B40C501B4010E94E00718160CF4D0CEFECE05
S1130B502AE939E949E95EE3C501B4010E94E007E5
S1130B6018160CF4B7CEFCCE2DEC3CEC4CEC5DE34B
S1130B70C501B4010E947A0788230CF02BCFFECE66
S1130B80BE0180E090E00E947F0720E030E040E278
S1130B9050E40E94E00718160CF048CC0ECCB701C4
S1130BA080E090E00E947F072DEC3CEC4CEC5DE390
S1130BB00E947A0788230CF40ECC46CCB70180E05F
S1130BC090E00E947F072DEC3CEC4CEC5DE30E942E
S1130BD07A0788230CF445CC7ACCB70180E090E006
S1130BE00E947F072DEC3CEC4CEC5DE30E947A07FD
S1130BF088230CF4F7CC2ECD2DEC3CEC4CEC5DE3CF
S1130C00C501B4010E947A0788230CF04FCD22CD90
S1130C10BE0180E090E00E947F0720E030E040E2E7
S1130C2050E40E94E00718160CF04ACD20CDC230E3
S1130C30D10508F016CED0CDC230D10508F003CED0
S1130C40D8CDB70180E090E00E947F072AE939E916
S1130C5049E95FE30E94E00718160CF49CCED1CE5C
S1130C6020E030E040E250E4C501B4010E94E00716
S1130C7018160CF015CCF5CBDF91CF911F910F9185
S1130C80FF90EF90DF90CF90BF90AF909F908F90A8
S1130C900895CF93C82F40E061E081E00E94ED0009
S1130CA040E062E081E00E94ED0040E063E081E02A
S1130CB00E94ED008BB39C2F907F8F70892B8BBB90
S1130CC041E063E081E00E94ED008FE99FE001973D
S1130CD0F1F700C0000040E063E081E00E94ED0015
S1130CE02BB330E1C39FC0011124922F9F70892B35
S1130CF08BBB41E063E081E00E94ED008FE99FE05F
S1130D000197F1F700C0000040E063E081E00E9439
S1130D10ED008FE19EE40197F1F700C00000CF9150
S1130D20089541E061E081E00E947C0041E062E0DE
S1130D3081E00E947C0041E063E081E00E947C004D
S1130D4041E064E080E00E947C0041E065E080E0F6
S1130D500E947C0041E066E080E00E947C0041E06B
S1130D6067E080E00E947C002FEF81EE94E0215048
S1130D7080409040E1F700C0000083E30E944906F0
S1130D8082E30E94490688E20E9449068CE00E94A0
S1130D90490681E00E94490686E00E94490682E0F5
S1130DA00E9449062FEF89EF90E021508040904047
S1130DB0E1F700C000000895CF93C82F41E061E03F
S1130DC081E00E94ED0040E062E081E00E94ED00DD
S1130DD040E063E081E00E94ED008BB39C2F907FA4
S1130DE08F70892B8BBB41E063E081E00E94ED00B2
S1130DF08FE99FE00197F1F700C0000040E063E055
S1130E0081E00E94ED002BB330E1C39FC0011124A7
S1130E10922F9F70892B8BBB41E063E081E00E949D
S1130E20ED008FE99FE00197F1F700C0000040E07A
S1130E3063E081E00E94ED008FE19EE40197F1F709
S1130E4000C00000CF9108950F931F93CF93FC012E
S1130E508081882359F08F01C0E00E94DC06CF5FB7
S1130E60F801EC0FF11D80818111F7CFCF911F9113
S1130E700F91089581E00E94490608950E94910609
S1130E800E94410080E090E00E945E01EC0181E05C
S1130E9090E00E945E013C0182E090E00E945E01CD
S1130EA07C0183E090E00E945E015C0184E090E0BC
S1130EB00E945E01FC010B2C000CCC08DD080F2CF9
S1130EC0000C000B110B9301770C440B550BBE0166
S1130ED0DD0F880B990B2F01FF0F660877087F92AF
S1130EE06F925F924F920E9467010F900F900F9044
S1130EF00F90C8CF0E94BC0708F481E00895E894DD
S1130F0009C097FB3EF490958095709561957F4F4D
S1130F108F4F9F4F9923A9F0F92F96E9BB279395FB
S1130F20F695879577956795B795F111F8CFFAF40B
S1130F30BB0F11F460FF1BC06F5F7F4F8F4F9F4F3C
S1130F4016C0882311F096E911C0772321F09EE89A
S1130F50872F762F05C0662371F096E8862F70E000
S1130F6060E02AF09A95660F771F881FDAF7880FDA
S1130F709695879597F90895990F0008550FAA0B30
S1130F80E0E8FEEF16161706E807F907C0F0121698
S1130F901306E407F50798F0621B730B840B950B9B
S1130FA039F40A2661F0232B242B252B21F40895F0
S1130FB00A2609F4A140A6958FEF811D811D08958D
S1110FC00E94BC0708F48FEF0895F894FFCF49
S1130FCE73746F70006F6E650074776F007468725F
S1130FDE656500666F7572006C6F7665006F6B00E9
S1130FEE7768657265006D6F76650077656C6C0069
S1130FFE796F75006D650077686174007768656E4A
S109100E00686F7700008A
S9030000FC
